S01300004361725F50726F6A6563742E73726563C5
S113000029C000007AC30000A1C30000C8C30000D7
S11300103CC0000011C4000038C0000036C000001D
S113002034C0000032C0000030C000002EC0000008
S11300302CC000002AC0000028C0000026C0000018
S113004024C0000022C0000020C000001EC0000028
S11300501CC0000011241FBECFE5D8E0DEBFCDBF19
S113006010E0A0E6B0E0E8E7FCE002C005900D92E5
S1130070A639B107D9F720E0A6E9B0E001C01D9286
S1130080A23AB207E1F70ED2F5C5BACF8091A1002A
S1130090811103C081E08093A100089539D11092A9
S11300A0A100089587E690E071D180E790E0E7D160
S11300B08BE690E0E4C108958AE690E046D189E6B3
S11300C090E043D188E690E040D187E690E03DD1CE
S11300D084E690E098D081E690E095D080E790E0C7
S11300E099D18BE690E096D12BD14EE450E060E0BC
S11300F080E010D146E450E060E081E00BC1089557
S11301008091A1008230C1F028F4882349F0813025
S113011049F00895833071F1843009F453C008958F
S1130120C1CF089582E08093A10042E061E070E0D5
S113013080E090E06EC0089583E08093A10087E69C
S113014090E046D182E3FED08AE690E01FD180E7BA
S113015090E071D18BE690E06ED142E063E070E014
S113016080E090E056D084E0809360008AE690E0DE
S11301702FC10895809160008093A10093DF41E036
S113018064EF71E080E090E044D087E690E020D115
S113019088E690E0FBD080E790E04DD18BE690E0DC
S11301A06ED142E062E070E080E090E032D088E618
S11301B090E00ED177DF41E064EF71E080E090E001
S11301C028C0089583E08093A10087E690E000D1E1
S11301D08EE1B8D089E690E0D9D080E790E02BD1C9
S11301E08BE690E028D142E062E070E080E090E0AD
S11301F010D089E690E0ECD082E08093600089E63C
S113020090E0E6C00895009711F0D6C1089580E00B
S11302100895CF92DF92EF92FF920F931F93CF93A3
S1130220DF9300D0CDB7DEB7423041F49B01AC017F
S113023060E472E48FE090E0CED40AC0413031F43F
S1130240A8EEB3E09B01AC01E8D402C0411154C054
S1130250683823E1720781059105B0F0683A21E618
S113026072078105910590F0683428EE720721E049
S11302708207910568F0603221EA720727E082075D
S1130280910540F015E007C011E005C012E003C07D
S113029013E001C014E011D46B017C01E12FF0E004
S11302A0EE0FFF1FE757FF4F6081718180E090E000
S11302B004D49B01AC01C701B6016BD3D2D3F62E93
S11302C0072F80E017D38F2D819543D3812F2BD314
S11302D010E0CE0101963FD3CE0102964AD3898124
S11302E0811103C08A818111F4CF3FD31F5F0117AD
S11302F080F727D380E001C081E00F900F90DF9159
S1130300CF911F910F91FF90EF90DF90CF900895C0
S113031018C308950F931F93CF93C82F8A015DD1FB
S1130320811108C0B8018C2FCFD191E0811103C095
S113033090E001C091E0892FCF911F910F91089512
S113034057C2089565D25AC20895CF93DF931F927E
S1130350CDB7DEB70097A9F0FC012081322F3770AA
S11303608981807C922F9873832B892B26FB2227EB
S113037020F9806420FB87F98983CE0101961CD182
S113038001C080E00F90DF91CF910895CF93DF9368
S11303901F92CDB7DEB70097B1F0FC012081322F58
S11303A037708981807C922F9873832B892B26FB4D
S11303B0222720F9806420FB87F9898361E0CE013C
S11303C00196B8D001C080E00F90DF91CF910895DD
S11303D0CF93DF931F92CDB7DEB70097B1F0FC0146
S11303E02081322F37708981807C922F9873832BE0
S11303F0892B26FB222720F9806420FB87F9898337
S113040060E0CE01019696D001C080E00F90DF91AC
S1130410CF910895CF93DF93009749F0EC01888141
S11304209981CAD08A819B81C7D080E001C081E0D4
S1130430DF91CF910895CF93DF930097D1F0EC0132
S11304408C8181110AC061E08881998173D060E058
S11304508A819B816FD080E00FC0813061F461E0BC
S11304608A819B8167D060E08881998163D080E034
S113047003C081E001C081E0DF91CF910895CF9363
S1130480DF93009759F0EC0160E08881998152D0A4
S113049060E08A819B814ED080E001C081E0DF91E1
S11304A0CF91089509DE2CDEFECFFC01892BF1F1FA
S11304B080818695869586958770908196FB222704
S11304C020F996FF1AC0213099F5E92FE770F0E082
S11304D0EE0FFF1FEF57FF4F0190F081E02D408199
S11304E021E030E0B90102C0660F771F8A95E2F778
S11304F0CB01842B808381E00895E081E770F0E0F4
S1130500EE0FFF1FEF57FF4F0190F081E02D408168
S113051021E030E0B90102C0660F771F8A95E2F747
S1130520CB0180958423808381E0089580E0089541
S113053080E00895FC01892BD9F1908196959695D8
S113054096959770662319F06130D1F033C0E0813D
S1130550E770F0E0EE0FFF1FE758FF4F0190F081C6
S1130560E02D408121E030E0B90102C0660F771F21
S11305709A95E2F7CB0180958423808381E00895E6
S1130580E081E770F0E0EE0FFF1FE758FF4F0190A6
S1130590F081E02D408121E030E0B90102C0660F16
S11305A0771F9A95E2F7CB01842B808381E008952D
S11305B080E0089580E00895CF93DF93009749F099
S11305C0EC0173DF688167FB662760F9CE01B2DF57
S11305D001C080E0DF91CF9108957894813089F152
S11305E020F0823009F459C06CC0611107C085B78E
S11305F08E7F85BF85B78D7F85BF1EC0613039F47E
S113060085B78E7F85BF85B7826085BF15C0623090
S113061039F485B7816085BF85B7826085BF0CC01A
S1130620633039F485B7816085BF85B78D7F85BF19
S113063003C0F89481E008958BB780648BBF80E099
S11306400895611107C085B78B7F85BF85B7877F04
S113065085BF1EC0613039F485B78B7F85BF85B7F0
S1130660886085BF15C0623039F485B7846085BF62
S113067085B7886085BF0CC0633039F485B7846062
S113068085BF85B7877F85BF03C0F89481E008954F
S11306908BB780688BBF80E00895613021F484B704
S11306A08F7B84BF09C0623021F484B7806484BF27
S11306B003C0F89481E008958BB780628BBF80E01B
S11306C00895F89481E00895811105C070939B000A
S11306D060939A000895813031F470939900609387
S11306E0980080E00895823031F47093970060930D
S11306F0960080E0089581E008951F920F920FB64E
S11307000F9211242F933F934F935F936F937F9393
S11307108F939F93AF93BF93EF93FF93E0919A00CE
S1130720F0919B00309709F00995FF91EF91BF91EB
S1130730AF919F918F917F916F915F914F913F9175
S11307402F910F900FBE0F901F9018951F920F922C
S11307500FB60F9211242F933F934F935F936F9390
S11307607F938F939F93AF93BF93EF93FF93E09106
S11307709800F0919900309709F00995FF91EF9155
S1130780BF91AF919F918F917F916F915F914F91A5
S11307903F912F910F900FBE0F901F9018951F92AD
S11307A00F920FB60F9211242F933F934F935F93A1
S11307B06F937F938F939F93AF93BF93EF93FF9325
S11307C0E0919600F0919700309709F00995FF9118
S11307D0EF91BF91AF919F918F917F916F915F91B5
S11307E04F913F912F910F900FBE0F901F9018952E
S11307F015BC789489B7806489BF089585B58160F4
S113080085BD85B5826085BD85B5846085BD089547
S1130810CF93C82F8AE890E0CFDE89E890E0CCDE61
S11308209C2F80E064E670E0E5D1615060939C0009
S1130830619564BDCF9108951F920F920FB60F92E8
S113084011242F933F934F935F936F937F938F93D1
S11308509F93AF93BF93EF93FF9380919D009091EB
S11308609E00A0919F00B091A0000097A105B10542
S1130870C1F460E089E890E05DDE60E08AE890E041
S113088059DE81E090E0A0E0B0E080939D00909379
S11308909E00A0939F00B093A00080919C0084BD13
S11308A018C00197A105B105A1F461E089E890E0C1
S11308B041DE61E08AE890E03DDE10929D001092F6
S11308C09E0010929F001092A00080919C00819540
S11308D084BDFF91EF91BF91AF919F918F917F91D3
S11308E06F915F914F913F912F910F900FBE0F9099
S11308F01F901895813031F058F0823029F0833000
S113090029F00FC020E405C028E003C028E401C09A
S113091020E093B7977B93BF83B7822B83BF80E09C
S1130920089581E008959FEF980F973040F493B7AE
S1130930987F93BF93B7892B83BF80E0089581E0AC
S1130940089583B7887F83BF12BE88B78E7F88BF20
S1130950089582BF0895FC01892B29F098B79170FE
S1130960908380E0089581E0089588B7816088BF0E
S11309700895009761F003B600FE05C021E0FC0174
S1130980208380E00895FC01108280E0089581E0D6
S113099008950CD0E6C0DED040F0D5D030F021F47C
S11309A05F3F19F0C7C0511110C1CAC0EBD098F312
S11309B09923C9F35523B1F3951B550BBB27AA27DC
S11309C062177307840738F09F5F5F4F220F331F4E
S11309D0441FAA1FA9F333D00E2E3AF0E0E830D01A
S11309E091505040E695001CCAF729D0FE2F27D01D
S11309F0660F771F881FBB1F261737074807AB07EB
S1130A00B0E809F0BB0B802DBF01FF2793585F4F5F
S1130A102AF09E3F510568F08DC0D7C05F3FECF3CC
S1130A20983EDCF3869577956795B795F7959F5F24
S1130A30C9F7880F911D9695879597F90895E1E078
S1130A40660F771F881FBB1F621773078407BA07D7
S1130A5020F0621B730B840BBA0BEE1F88F7E09532
S1130A60089598D088F09F5790F0B92F9927B751DF
S1130A70A0F0D1F0660F771F881F991F1AF0BA955E
S1130A80C9F712C0B13081F09FD0B1E008959CC085
S1130A90672F782F8827B85F39F0B93FCCF3869554
S1130AA077956795B395D9F73EF4909580957095B1
S1130AB061957F4F8F4F9F4F0895E89409C097FB2E
S1130AC03EF490958095709561957F4F8F4F9F4F21
S1130AD09923A9F0F92F96E9BB279395F695879565
S1130AE077956795B795F111F8CFFAF4BB0F11F428
S1130AF060FF1BC06F5F7F4F8F4F9F4F16C08823CF
S1130B0011F096E911C0772321F09EE8872F762F04
S1130B1005C0662371F096E8862F70E060E02AF045
S1130B209A95660F771F881FDAF7880F9695879531
S1130B3097F9089597F99F6780E870E060E0089559
S1130B409FEF80EC089500240A94161617061806E1
S1130B500906089500240A941216130614060506BD
S1130B600895092E0394000C11F4882352F0BB0F4E
S1130B7040F4BF2B11F460FF04C06F5F7F4F8F4FB1
S1130B809F4F089557FD9058440F551F59F05F3FEC
S1130B9071F04795880F97FB991F61F09F3F79F09B
S1130BA087950895121613061406551FF2CF46951D
S1130BB0F1DF08C0161617061806991FF1CF86959F
S1130BC07105610508940895E894BB276627772783
S1130BD0CB0197F90895DB018F939F931ED0BF91AA
S1130BE0AF91A29F800D911DA39F900DB29F900D78
S1130BF01124089597FB072E16F4009406D077FD70
S1130C0008D015D007FC05D03EF4909581959F4FF0
S1130C100895709561957F4F08951DD0A59F900DFF
S1130C20B49F900DA49F800D911D11240895AA1BBB
S1130C30BB1B51E107C0AA1FBB1FA617B70710F0C3
S1130C40A61BB70B881F991F5A95A9F780959095F5
S1130C50BC01CD010895A29FB001B39FC001A39F21
S1130C60700D811D1124911DB29F700D811D1124E1
S10B0C70911D0895F894FFCFD3
S1130C78049301009B010058101A127600750000B5
S1130C8878007700004A4248403B0038003500327B
S1130C98003A00370034003100E2E0010008004067
S1090CA800090100040034
S9030000FC
