S01300004361725F50726F6A6563742E73726563C5
S11300000C942A000C94AD020C94D6020C94FF02BA
S11300100C9447000C944B030C9447000C94470039
S11300200C9447000C9447000C9447000C94310442
S11300300C9447000C9447000C9447000C94470020
S11300400C9447000C9447000C9447000C94470010
S11300500C94470011241FBECFE5D8E0DEBFCDBF0E
S113006010E0A0E6B0E0E0E9FBE002C005900D92EC
S1130070A639B107D9F720E0A6E9B0E001C01D9286
S1130080A33AB207E1F70E9466010C94C6050C94EA
S1130090000082E30E9434030E9430038FE690E064
S11300A00E943E018AE690E00E943E0161E088EBF6
S11300B09BE00E94C80389E690E00E94D70061E0BB
S11300C088EB9BE00E94C80389E690E00E9401014E
S11300D0089589E690E00E94AE0088E690E00E94D0
S11300E0AE0087E690E00E94AE0086E690E00E94B3
S11300F0AE0089E690E00E94D70061E088EB9BE0C7
S11301000E94C80389E690E00E94010161E088EB47
S11301109BE00E94C80383E690E00E94A70080E66B
S113012090E00E94A7008FE690E00E942B018AE6EF
S113013090E00E942B010E94280360E081E00E946D
S11301400D0269E470E081E00E9494020895009732
S113015019F00E94EA01089580E00895CF93DF9397
S11301601F92CDB7DEB70097E9F0FC012081922FF2
S113017097708981887F892B922F9695969596956D
S11301809770990F990F990F877C892B26FB22274B
S113019020F9806420FB87F98983CE0101960E94AF
S11301A0EA0101C080E00F90DF91CF910895CF93D1
S11301B0DF931F92CDB7DEB70097F1F0FC012081E9
S11301C0922F97708981887F892B922F9695969587
S11301D096959770990F990F990F877C892B26FB19
S11301E0222720F9806420FB87F9898361E0CE010E
S11301F001960E94AA0101C080E00F90DF91CF9187
S11302000895CF93DF931F92CDB7DEB70097F1F037
S1130210FC012081922F97708981887F892B922FEE
S11302209695969596959770990F990F990F877C47
S1130230892B26FB222720F9806420FB87F98983F8
S113024060E0CE0101960E94AA0101C080E00F90F7
S1130250DF91CF910895CF93DF93009759F0EC018C
S1130260888199810E94EA018A819B810E94EA0126
S113027080E001C081E0DF91CF910895CF93DF93B7
S11302800097F1F0EC018C8181110CC061E0888150
S113029099810E94AA0160E08A819B810E94AA013F
S11302A080E011C0813071F461E08A819B810E94F9
S11302B0AA0160E0888199810E94AA0180E003C0BC
S11302C081E001C081E0DF91CF9108950E9469002F
S11302D0FFCFFC01892BD1F1208126952695269507
S11302E02770808186FB992790F986FF18C091308A
S11302F079F5E82FE770F0E0EE0FFF1FE058FF4FAD
S11303000190F081E02D308181E090E002C0880FFF
S1130310991F2A95E2F7832B808381E00895E08179
S1130320E770F0E0EE0FFF1FE058FF4F0190F081FF
S1130330E02D308181E090E002C0880F991F2A955A
S1130340E2F780958323808381E0089580E0089517
S113035080E008950097D1F1DC012C912695269533
S113036026952770662319F06130C9F031C0DC018D
S1130370EC91E770F0E0EE0FFF1FE858FF4F01909B
S1130380F081E02D308181E090E002C0880F991F58
S11303902A95E2F780958323808381E00895DC0128
S11303A0EC91E770F0E0EE0FFF1FE858FF4F01906B
S11303B0F081E02D308181E090E002C0880F991F28
S11303C02A95E2F7832B808381E0089580E00895E5
S11303D080E00895CF93DF93009759F0EC010E94D9
S11303E06901688167FB662760F9CE010E94AA0152
S11303F001C080E0DF91CF910895813029F48FB757
S113040080688FBF80E00895811105C08FB78F7712
S11304108FBF80E0089581E00895CF93DF93C82FC4
S1130420D62F81E00E94FD01C13099F120F0C23045
S113043009F45DC072C0D11107C085B78E7F85BF36
S113044085B78D7F85BF20C0D13039F485B78E7FC5
S113045085BF85B7826085BF17C0D23039F485B7B0
S1130460816085BF85B7826085BF0EC0D33039F403
S113047085B7816085BF85B78D7F85BF05C080E066
S11304800E94FD0181E04DC08BB780648BBF80E08A
S113049048C0D11107C085B78B7F85BF85B7877FDB
S11304A085BF20C0D13039F485B78B7F85BF85B730
S11304B0886085BF17C0D23039F485B7846085BFA2
S11304C085B7886085BF0EC0D33039F485B78460A2
S11304D085BF85B7877F85BF05C080E00E94FD0189
S11304E081E01FC08BB780688BBF80E01AC0D13019
S11304F021F484B78F7B84BF0BC0D23021F484B73E
S1130500806484BF05C080E00E94FD0181E009C0D1
S11305108BB780628BBF80E004C080E00E94FD0145
S113052081E0DF91CF910895811105C070939B0004
S113053060939A000895813031F470939900609328
S1130540980080E00895823031F4709397006093AE
S1130550960080E0089581E008951F920F920FB6EF
S11305600F9211242F933F934F935F936F937F9335
S11305708F939F93AF93BF93EF93FF93E0919A0070
S1130580F0919B00309709F00995FF91EF91BF918D
S1130590AF919F918F917F916F915F914F913F9117
S11305A02F910F900FBE0F901F9018951F920F92CE
S11305B00FB60F9211242F933F934F935F936F9332
S11305C07F938F939F93AF93BF93EF93FF93E091A8
S11305D09800F0919900309709F00995FF91EF91F7
S11305E0BF91AF919F918F917F916F915F914F9147
S11305F03F912F910F900FBE0F901F9018951F924F
S11306000F920FB60F9211242F933F934F935F9342
S11306106F937F938F939F93AF93BF93EF93FF93C6
S1130620E0919600F0919700309709F00995FF91B9
S1130630EF91BF91AF919F918F917F916F915F9156
S11306404F913F912F910F900FBE0F901F901895CF
S113065015BC8FB780688FBF89B7806489BF089540
S113066085B5876085BD0895CF93C82F89E890E04C
S11306700E94EA0188E890E00E94EA019C2F80E051
S113068064E670E00E949E05615060939C00619551
S113069064BDCF9108951F920F920FB60F9211244B
S11306A02F933F934F935F936F937F938F939F9376
S11306B0AF93BF93EF93FF9380919D0090919E0021
S11306C00097A1F460E088E890E00E94AA0160E04D
S11306D089E890E00E94AA0181E090E090939E0056
S11306E080939D0080919C0084BD14C0019791F477
S11306F061E088E890E00E94AA0161E089E890E066
S11307000E94AA0110929E0010929D0080919C006C
S1130710819584BDFF91EF91BF91AF919F918F918E
S11307207F916F915F914F913F912F910F900FBEE9
S11307300F901F901895813061F028F0823029F0D5
S1130740833029F00FC020E005C028E003C028E46E
S113075001C020E493B7977B93BF83B7822B83BFF9
S113076080E0089581E008959FEF980F973040F45A
S113077093B7987F93BF93B7892B83BF80E0089585
S113078081E0089583B7887F83BF089582BF089569
S1130790CF92DF92EF92FF921F93CF93DF93EC01FE
S11307A0623059F480E492E49E01289FE001299F7D
S11307B0D00D389FD00D11240FC0613059F488EE4C
S11307C093E09E01289FE001299FD00D389FD00D12
S11307D0112402C061113CC0C93833E1D30710F4BD
S11307E011E001C013E0E12FF0E03197EE0FFF1F9D
S11307F0E557FF4F6081718180E090E00E94100511
S11308006B017C01BE0180E090E00E941005A7010D
S113081096010E946F040E94E104D62FC72F80E046
S11308200E949B038D2F81950E94C603812F0E94F5
S1130830B40390E007C008B600FEFDCF88B781601E
S113084088BF9F5FC917B8F70E94C20380E001C048
S113085081E0DF91CF911F91FF90EF90DF90CF90D7
S113086008951F920F920FB60F9211242F933F9366
S11308704F935F936F937F938F939F93AF93BF93A4
S1130880EF93FF9380919F009091A000892BB1F08A
S11308908091A2009091A10089130DC00E94C2030F
S11308A01092A20081E080938A00E0919F00F09171
S11308B0A000099503C08F5F8093A200FF91EF9180
S11308C0BF91AF919F918F917F916F915F914F9164
S11308D03F912F910F900FBE0F901F9018950E947B
S11308E083040C9464050E945D0558F00E9456052B
S11308F040F029F45F3F29F00C944D0551110C94FC
S113090098050C9453050E94750568F39923B1F377
S1130910552391F3951B550BBB27AA276217730721
S1130920840738F09F5F5F4F220F331F441FAA1FB5
S1130930A9F335D00E2E3AF0E0E832D09150504071
S1130940E695001CCAF72BD0FE2F29D0660F771F1F
S1130950881FBB1F261737074807AB07B0E809F005
S1130960BB0B802DBF01FF2793585F4F3AF09E3F8A
S1130970510578F00C944D050C9498055F3FE4F311
S1130980983ED4F3869577956795B795F7959F5FCD
S1130990C9F7880F911D9695879597F90895E1E019
S11309A0660F771F881FBB1F621773078407BA0778
S11309B020F0621B730B840BBA0BEE1F88F7E095D3
S11309C008950E947D0588F09F5798F0B92F9927C4
S11309D0B751B0F0E1F0660F771F881F991F1AF026
S11309E0BA95C9F714C0B13091F00E949705B1E0EF
S11309F008950C949705672F782F8827B85F39F0EE
S1130A00B93FCCF3869577956795B395D9F73EF4BE
S1130A1090958095709561957F4F8F4F9F4F089566
S1130A20E89409C097FB3EF4909580957095619584
S1130A307F4F8F4F9F4F9923A9F0F92F96E9BB273A
S1130A409395F695879577956795B795F111F8CFB6
S1130A50FAF4BB0F11F460FF1BC06F5F7F4F8F4F21
S1130A609F4F16C0882311F096E911C0772321F017
S1130A709EE8872F762F05C0662371F096E8862FAF
S1130A8070E060E02AF09A95660F771F881FDAF706
S1130A90880F9695879597F9089597F99F6780E849
S1130AA070E060E008959FEF80EC089500240A94BC
S1130AB01616170618060906089500240A94121635
S1130AC01306140605060895092E0394000C11F468
S1130AD0882352F0BB0F40F4BF2B11F460FF04C015
S1130AE06F5F7F4F8F4F9F4F089557FD9058440F6E
S1130AF0551F59F05F3F71F04795880F97FB991F79
S1130B0061F09F3F79F08795089512161306140635
S1130B10551FF2CF4695F1DF08C0161617061806C2
S1130B20991FF1CF86957105610508940895E8949D
S1130B30BB2766277727CB0197F9089597FB072EE4
S1130B4016F4009407D077FD09D00E94B20507FC83
S1130B5005D03EF4909581959F4F089570956195C9
S1130B607F4F0895AA1BBB1B51E107C0AA1FBB1FDF
S1130B70A617B70710F0A61BB70B881F991F5A9525
S1130B80A9F780959095BC01CD010895F894FFCF05
S1130B909301009B010058101A127500740000772D
S1130BA0007600004A4248403B00380035003200DD
S1130BB03A00370034003100E2E00101000800404F
S1090BC00009010004001D
S9030000FC
