:100000000C942A000C943F000C943F000C943F0089
:100010000C943F000C943F000C943F000C943F0064
:100020000C943F000C943F000C943F000C943F0054
:100030000C943F000C943F000C943F000C943F0044
:100040000C943F000C943F000C943F000C943F0034
:100050000C943F0011241FBECFE5D8E0DEBFCDBF1A
:1000600010E0A0E6B0E0E6EFF1E002C005900D92EE
:10007000AC36B107D9F70E947E000C94F9000C94BD
:100080000000CF93DF93009769F0EC0141E06981B4
:1000900088810E94870041E06A8188810E948700F0
:1000A00080E001C081E0DF91CF910895CF93DF938D
:1000B0000097F1F0EC018B8181110CC041E0698166
:1000C00088810E94C00040E06A8188810E94C0004F
:1000D00080E011C0813071F441E06A8188810E9422
:1000E000C00040E0698188810E94C00080E003C0B8
:1000F00081E001C081E0DF91CF91089580E690E03A
:100100000E94410080E690E00E945600FFCF8430BC
:1001100088F5683088F54130A9F4E82FF0E0EE0F5B
:10012000FF1FEC59FF4F0190F081E02D218181E00C
:1001300090E002C0880F991F6A95E2F7822B8183B5
:1001400080E0089541111AC0E82FF0E0EE0FFF1F84
:10015000EC59FF4F0190F081E02D218181E090E08A
:1001600002C0880F991F6A95E2F7809582238183E8
:1001700080E0089581E0089582E0089583E0089585
:10018000843088F5683088F54130A9F4E82FF0E034
:10019000EE0FFF1FEC59FF4F0190F081E02D2281FF
:1001A00081E090E002C0880F991F6A95E2F7822BE8
:1001B000828380E0089541111AC0E82FF0E0EE0F2D
:1001C000FF1FEC59FF4F0190F081E02D228181E06B
:1001D00090E002C0880F991F6A95E2F7809582230C
:1001E000828380E0089581E0089582E0089583E0AD
:0601F0000895F894FFCF12
:0C01F6000000010039003600330030002A
:00000001FF
