S01300004361725F50726F6A6563742E73726563C5
S113000029C000007CC30000A3C30000CAC30000D1
S11300103CC000000FC4000038C0000036C000001F
S113002034C0000032C0000030C000002EC0000008
S11300302CC000002AC0000028C0000026C0000018
S113004024C0000022C0000020C000001EC0000028
S11300501CC0000011241FBECFE5D8E0DEBFCDBF19
S113006010E0A0E6B0E0E4E7FCE002C005900D92E9
S1130070A639B107D9F720E0A6E9B0E001C01D9286
S1130080A23AB207E1F7F5D1F3C5BACF81E0809384
S1130090A10008953FD11092A100089587E690E051
S11300A05CD180E790E0D2D18BE690E0CFC1089597
S11300B08AE690E031D189E690E02ED188E690E09E
S11300C02BD187E690E028D184E690E09ED081E6AB
S11300D090E09BD080E790E084D18BE690E081D1E2
S11300E089D360E081E070D266E470E081E0EED212
S11300F060E080E069D26AE470E080E0E7C20895DD
S11301008091A1008230C1F028F4882349F0813025
S113011049F00895833079F1843009F454C0089586
S1130120BDCF089582E08093A10042E061E070E0D9
S113013080E090E070C0089583E08093A10087E69A
S113014090E02DD182E362D35DD38AE690E005D1BD
S113015080E790E057D18BE690E054D142E063E031
S113016070E080E090E057D084E0809360008AE6FD
S113017090E015C10895809160008093A1008EDF06
S113018041E064EF71E080E090E045D087E690E0E4
S113019006D188E690E0E1D080E790E033D18BE6A9
S11301A090E054D142E062E070E080E090E033D02F
S11301B088E690E0F4D072DF41E064EF71E080E023
S11301C090E029C0089583E08093A10087E690E041
S11301D0E6D08EE11BD316D389E690E0BED080E74B
S11301E090E010D18BE690E00DD142E062E070E047
S11301F080E090E010D089E690E0D1D082E0809356
S1130200600089E690E0CBC00895009711F0BBC16F
S1130210089580E00895CF92DF92EF92FF920F93BA
S11302201F93CF93DF9300D0CDB7DEB7423041F4B4
S11302309B01AC0160E472E48FE090E0CAD40AC090
S1130240413031F4A8EEB3E09B01AC01E4D402C028
S1130250411154C0683823E1720781059105B0F05B
S1130260683A21E672078105910590F0683428EE1A
S1130270720721E08207910568F0603221EA720773
S113028027E08207910540F015E007C011E005C0A2
S113029012E003C013E001C014E00DD46B017C0133
S11302A0E12FF0E0EE0FFF1FE757FF4F60817181F0
S11302B080E090E000D49B01AC01C701B60167D394
S11302C0CED3F62E072F80E013D38F2D81953FD305
S11302D0812F27D310E0CE0101963BD3CE010296A5
S11302E046D38981811103C08A818111F4CF3BD324
S11302F01F5F011780F723D380E001C081E00F90D6
S11303000F90DF91CF911F910F91FF90EF90DF90AD
S1130310CF90089514C30895CF93DF931F92CDB760
S1130320DEB70097A9F0FC012081322F3770898154
S1130330807C922F9873832B892B26FB222720F90C
S1130340806420FB87F98983CE0101961CD101C00A
S113035080E00F90DF91CF910895CF93DF931F92A8
S1130360CDB7DEB70097B1F0FC012081322F377092
S11303708981807C922F9873832B892B26FB2227DB
S113038020F9806420FB87F9898361E0CE0101961E
S1130390B8D001C080E00F90DF91CF910895CF9342
S11303A0DF931F92CDB7DEB70097B1F0FC01208137
S11303B0322F37708981807C922F9873832B892BFD
S11303C026FB222720F9806420FB87F9898360E0DB
S11303D0CE01019696D001C080E00F90DF91CF91BD
S11303E00895CF93DF93009749F0EC0188819981B8
S11303F0CAD08A819B81C7D080E001C081E0DF91AF
S1130400CF910895CF93DF930097D1F0EC018C81C5
S113041081110AC061E08881998173D060E08A818A
S11304209B816FD080E00FC0813061F461E08A81EC
S11304309B8167D060E08881998163D080E003C0AC
S113044081E001C081E0DF91CF910895CF93DF93E4
S1130450009759F0EC0160E08881998152D060E006
S11304608A819B814ED080E001C081E0DF91CF91F1
S113047008951EDE45DEFECFFC01892BF1F180815B
S11304808695869586958770908196FB222720F91C
S113049096FF1AC0213099F5E92FE770F0E0EE0FCE
S11304A0FF1FEF57FF4F0190F081E02D408121E0C5
S11304B030E0B90102C0660F771F8A95E2F7CB01DD
S11304C0842B808381E00895E081E770F0E0EE0FF3
S11304D0FF1FEF57FF4F0190F081E02D408121E095
S11304E030E0B90102C0660F771F8A95E2F7CB01AD
S11304F080958423808381E0089580E0089580E0DE
S11305000895FC01892BD9F190819695969596953D
S11305109770662319F06130D1F033C0E081E77041
S1130520F0E0EE0FFF1FE758FF4F0190F081E02D40
S1130530408121E030E0B90102C0660F771F9A952F
S1130540E2F7CB0180958423808381E00895E081E4
S1130550E770F0E0EE0FFF1FE758FF4F0190F081C6
S1130560E02D408121E030E0B90102C0660F771F21
S11305709A95E2F7CB01842B808381E0089580E093
S1130580089580E00895CF93DF93009749F0EC013C
S113059073DF688167FB662760F9CE01B2DF01C0B3
S11305A080E0DF91CF910895813029F48FB780687E
S11305B08FBF80E00895811105C08FB78F778FBFFB
S11305C080E0089581E00895CF93DF93C82FD62F5C
S11305D081E0EADFC13091F120F0C23009F45BC060
S11305E06FC0D11107C085B78E7F85BF85B78D7F5A
S11305F085BF1FC0D13039F485B78E7F85BF85B7DD
S1130600826085BF16C0D23039F485B7816085BF5A
S113061085B7826085BF0DC0D33039F485B781605A
S113062085BF85B78D7F85BF04C080E0BDDF81E0D5
S11306304AC08BB780648BBF80E045C0D11107C02E
S113064085B78B7F85BF85B7877F85BF1FC0D130B6
S113065039F485B78B7F85BF85B7886085BF16C0A1
S1130660D23039F485B7846085BF85B7886085BF8B
S11306700DC0D33039F485B7846085BF85B7877FD3
S113068085BF04C080E090DF81E01DC08BB7806827
S11306908BBF80E018C0D13021F484B78F7B84BF36
S11306A00AC0D23021F484B7806484BF04C080E0DF
S11306B07BDF81E008C08BB780628BBF80E003C022
S11306C080E072DF81E0DF91CF910895811105C050
S11306D070939B0060939A000895813031F4709375
S11306E099006093980080E00895823031F470930B
S11306F097006093960080E0089581E008951F922A
S11307000F920FB60F9211242F933F934F935F9341
S11307106F937F938F939F93AF93BF93EF93FF93C5
S1130720E0919A00F0919B00309709F00995FF91B0
S1130730EF91BF91AF919F918F917F916F915F9155
S11307404F913F912F910F900FBE0F901F901895CE
S11307501F920F920FB60F9211242F933F934F9332
S11307605F936F937F938F939F93AF93BF93EF9315
S1130770FF93E0919800F0919900309709F0099562
S1130780FF91EF91BF91AF919F918F917F916F9165
S11307905F914F913F912F910F900FBE0F901F903B
S11307A018951F920F920FB60F9211242F933F9317
S11307B04F935F936F937F938F939F93AF93BF9365
S11307C0EF93FF93E0919600F0919700309709F032
S11307D00995FF91EF91BF91AF919F918F917F9177
S11307E06F915F914F913F912F910F900FBE0F909A
S11307F01F90189515BC8FB780688FBF89B7806428
S113080089BF089585B5876085BD0895CF93C82FA6
S11308108AE890E0B8DE89E890E0B5DE9C2F80E0BD
S113082064E670E0E5D1615060939C00619564BD1D
S1130830CF9108951F920F920FB60F9211242F9308
S11308403F934F935F936F937F938F939F93AF9354
S1130850BF93EF93FF9380919D0090919E00A09190
S11308609F00B091A0000097A105B105C1F460E01C
S113087089E890E046DE60E08AE890E042DE81E0CC
S113088090E0A0E0B0E080939D0090939E00A09340
S11308909F00B093A00080919C0084BD18C0019774
S11308A0A105B105A1F461E089E890E02ADE61E0E8
S11308B08AE890E026DE10929D0010929E0010922D
S11308C09F001092A00080919C00819584BDFF91AF
S11308D0EF91BF91AF919F918F917F916F915F91B4
S11308E04F913F912F910F900FBE0F901F9018952D
S11308F0813031F058F0823029F0833029F00FC074
S113090020E405C028E003C028E401C020E093B738
S1130910977B93BF83B7822B83BF80E0089581E0E8
S113092008959FEF980F973040F493B7987F93BF43
S113093093B7892B83BF80E0089581E0089583B73E
S1130940887F83BF12BE88B78E7F88BF089582BF19
S11309500895FC01892B29F098B79170908380E069
S1130960089581E0089588B7816088BF089500974D
S113097061F003B600FE05C021E0FC01208380E0A5
S11309800895FC01108280E0089581E008950CD060
S1130990E6C0DED040F0D5D030F021F45F3F19F04E
S11309A0C7C0511110C1CAC0EBD098F39923C9F341
S11309B05523B1F3951B550BBB27AA276217730761
S11309C0840738F09F5F5F4F220F331F441FAA1F15
S11309D0A9F333D00E2E3AF0E0E830D091505040D5
S11309E0E695001CCAF729D0FE2F27D0660F771F83
S11309F0881FBB1F261737074807AB07B0E809F065
S1130A00BB0B802DBF01FF2793585F4F2AF09E3FF9
S1130A10510568F08DC0D7C05F3FECF3983EDCF31E
S1130A20869577956795B795F7959F5FC9F7880F72
S1130A30911D9695879597F90895E1E0660F771FC4
S1130A40881FBB1F621773078407BA0720F0621B55
S1130A50730B840BBA0BEE1F88F7E095089598D0BA
S1130A6088F09F5790F0B92F9927B751A0F0D1F093
S1130A70660F771F881F991F1AF0BA95C9F712C01D
S1130A80B13081F09FD0B1E008959CC0672F782FDA
S1130A908827B85F39F0B93FCCF386957795679589
S1130AA0B395D9F73EF490958095709561957F4FF5
S1130AB08F4F9F4F0895E89409C097FB3EF490959B
S1130AC08095709561957F4F8F4F9F4F9923A9F023
S1130AD0F92F96E9BB279395F695879577956795B2
S1130AE0B795F111F8CFFAF4BB0F11F460FF1BC0F6
S1130AF06F5F7F4F8F4F9F4F16C0882311F096E989
S1130B0011C0772321F09EE8872F762F05C0662336
S1130B1071F096E8862F70E060E02AF09A95660FEF
S1130B20771F881FDAF7880F9695879597F90895A8
S1130B3097F99F6780E870E060E008959FEF80EC8C
S1130B40089500240A94161617061806090608952F
S1130B5000240A9412161306140605060895092E95
S1130B600394000C11F4882352F0BB0F40F4BF2B04
S1130B7011F460FF04C06F5F7F4F8F4F9F4F089544
S1130B8057FD9058440F551F59F05F3F71F047953A
S1130B90880F97FB991F61F09F3F79F0879508951F
S1130BA0121613061406551FF2CF4695F1DF08C03E
S1130BB0161617061806991FF1CF8695710561055B
S1130BC008940895E894BB2766277727CB0197F903
S1130BD00895DB018F939F931ED0BF91AF91A29F85
S1130BE0800D911DA39F900DB29F900D1124089527
S1130BF097FB072E16F4009406D077FD08D015D085
S1130C0007FC05D03EF4909581959F4F089570950B
S1130C1061957F4F08951DD0A59F900DB49F900DB1
S1130C20A49F800D911D11240895AA1BBB1B51E1A3
S1130C3007C0AA1FBB1FA617B70710F0A61BB70B48
S1130C40881F991F5A95A9F780959095BC01CD01ED
S1130C500895A29FB001B39FC001A39F700D811D91
S1130C601124911DB29F700D811D1124911D0895B1
S1070C70F894FFCF22
S1130C74049301009B010058101A127600750000B9
S1130C8478007700004A4248403B0038003500327F
S1130C94003A00370034003100E2E001000800406B
S1090CA400090100040038
S9030000FC
